:100000000C9434000C9449000C9449000C94490061
:100010000C9449000C9449000C9449000C9449003C
:100020000C9449000C9449000C9449000C9449002C
:100030000C9449000C9449000C9449000C9449001C
:100040000C9449000C9449000C9449000C9449000C
:100050000C9449000C9449000C9449000C944900FC
:100060000C9449000C94490011241FBECFEFD8E036
:10007000DEBFCDBF11E0A0E0B1E0EAEDF2E002C0EA
:1000800005900D92A033B107D9F70E944B000C9454
:100090006B010C940000CF93DF9300D000D01F922F
:1000A000CDB7DEB70E9410010E9405010E947A00C0
:1000B00080E091E00E9424010E947D004AE0BE01A0
:1000C0006F5F7F4F0E943601CE0101960E9424018E
:1000D0008DE291E00E94240180E191E00E942401E0
:1000E0002FEF81EE94E0215080409040E1F700C076
:1000F0000000E2CF389A409A0895CF92DF92EF92B3
:10010000FF920F931F93CF93DF93CDB7DEB728975E
:100110000FB6F894DEBF0FBECDBF40988FEF0E94A0
:100120000B010EB58FEF0E940B01EEB48FEF0E9412
:100130000B01CEB48FEF0E940B01DEB4409A83E135
:1001400091E00E94240110E040E1BE016F5F7F4F0B
:10015000C8010E943601CE0101960E9424018EE260
:1001600091E00E942401F12C40E1BE016F5F7F4FBE
:10017000C7010E943601CE0101960E9424018EE241
:1001800091E00E94240140E1BE016F5F7F4F8C2D02
:1001900090E00E943601CE0101960E9424018EE279
:1001A00091E00E94240140E1BE016F5F7F4F8D2DE1
:1001B00090E00E943601CE0101960E9424018EE259
:1001C00091E00E9424018DE291E00E942401102F11
:1001D00000270E291F2900FF04C08FE191E00E9433
:1001E0002401C801969587959695879528960FB610
:1001F000F894DEBF0FBECDBFDF91CF911F910F915D
:10020000FF90EF90DF90CF9008958CE284B981E564
:100210008CBD1DBC08958EBD0DB407FEFDCF0895A5
:1002200088E18093C10086E08093C2001092C500EF
:1002300087E68093C4000895E0ECF0E0908195FF9C
:10024000FDCF8093C6000895CF93DF93009759F0B8
:10025000FC012081222339F0EC0189910E941C01CC
:1002600088818111FACFDF91CF910895BB274A3061
:1002700031F4992322F4BDE2909581959F4F0C941F
:100280004201BB27FB015527AA27880F991FAA1FE8
:10029000A41710F0A41B83955051B9F7A05DAA33A1
:1002A00008F0A95DA193009779F7B111B19311926C
:1002B000CB010C945B01DC01FC01672F719177236A
:1002C000E1F7329704C07C916D9370836291AE1711
:0A02D000BF07C8F30895F894FFCFAC
:1002DA0054657374696E67204D415833313835352A
:1002EA000D0A005261772056616C75653A20004606
:1002FA0061756C742044657465637465642C2000B0
:00000001FF
